{
  "contractName": "DataAccess",
  "abi": [
    {
      "constant": true,
      "inputs": [],
      "name": "amIOwner",
      "outputs": [
        {
          "internalType": "bool",
          "name": "",
          "type": "bool"
        }
      ],
      "payable": false,
      "stateMutability": "view",
      "type": "function"
    },
    {
      "constant": false,
      "inputs": [
        {
          "internalType": "string",
          "name": "a",
          "type": "string"
        }
      ],
      "name": "storeDataHash",
      "outputs": [],
      "payable": false,
      "stateMutability": "nonpayable",
      "type": "function"
    },
    {
      "constant": false,
      "inputs": [
        {
          "internalType": "string",
          "name": "a",
          "type": "string"
        }
      ],
      "name": "storeSecretObjectHash",
      "outputs": [],
      "payable": false,
      "stateMutability": "nonpayable",
      "type": "function"
    },
    {
      "constant": true,
      "inputs": [],
      "name": "getDataHash",
      "outputs": [
        {
          "internalType": "string",
          "name": "",
          "type": "string"
        }
      ],
      "payable": false,
      "stateMutability": "view",
      "type": "function"
    },
    {
      "constant": true,
      "inputs": [],
      "name": "getSecretObjectHash",
      "outputs": [
        {
          "internalType": "string",
          "name": "",
          "type": "string"
        }
      ],
      "payable": false,
      "stateMutability": "view",
      "type": "function"
    }
  ],
  "bytecode": "0x6080604052336000806101000a81548173ffffffffffffffffffffffffffffffffffffffff021916908373ffffffffffffffffffffffffffffffffffffffff16021790555034801561005057600080fd5b506107c6806100606000396000f3fe608060405234801561001057600080fd5b50600436106100575760003560e01c80634e4ab8301461005c578063a3e4edcd1461007a578063a4da229014610098578063d10d0d02146100b6578063d5cb12b7146100d2575b600080fd5b6100646100ee565b6040516100719190610652565b60405180910390f35b610082610145565b60405161008f919061066d565b60405180910390f35b6100a06101e7565b6040516100ad919061066d565b60405180910390f35b6100d060048036036100cb9190810190610563565b610318565b005b6100ec60048036036100e79190810190610563565b6103c1565b005b60008060009054906101000a900473ffffffffffffffffffffffffffffffffffffffff1673ffffffffffffffffffffffffffffffffffffffff163373ffffffffffffffffffffffffffffffffffffffff1614905090565b606060028054600181600116156101000203166002900480601f0160208091040260200160405190810160405280929190818152602001828054600181600116156101000203166002900480156101dd5780601f106101b2576101008083540402835291602001916101dd565b820191906000526020600020905b8154815290600101906020018083116101c057829003601f168201915b5050505050905090565b60606000809054906101000a900473ffffffffffffffffffffffffffffffffffffffff1673ffffffffffffffffffffffffffffffffffffffff163373ffffffffffffffffffffffffffffffffffffffff1614610278576040517f08c379a000000000000000000000000000000000000000000000000000000000815260040161026f9061068f565b60405180910390fd5b60018054600181600116156101000203166002900480601f01602080910402602001604051908101604052809291908181526020018280546001816001161561010002031660029004801561030e5780601f106102e35761010080835404028352916020019161030e565b820191906000526020600020905b8154815290600101906020018083116102f157829003601f168201915b5050505050905090565b6000809054906101000a900473ffffffffffffffffffffffffffffffffffffffff1673ffffffffffffffffffffffffffffffffffffffff163373ffffffffffffffffffffffffffffffffffffffff16146103a7576040517f08c379a000000000000000000000000000000000000000000000000000000000815260040161039e9061068f565b60405180910390fd5b80600190805190602001906103bd92919061046a565b5050565b6000809054906101000a900473ffffffffffffffffffffffffffffffffffffffff1673ffffffffffffffffffffffffffffffffffffffff163373ffffffffffffffffffffffffffffffffffffffff1614610450576040517f08c379a00000000000000000000000000000000000000000000000000000000081526004016104479061068f565b60405180910390fd5b806002908051906020019061046692919061046a565b5050565b828054600181600116156101000203166002900490600052602060002090601f016020900481019282601f106104ab57805160ff19168380011785556104d9565b828001600101855582156104d9579182015b828111156104d85782518255916020019190600101906104bd565b5b5090506104e691906104ea565b5090565b61050c91905b808211156105085760008160009055506001016104f0565b5090565b90565b600082601f83011261052057600080fd5b813561053361052e826106dc565b6106af565b9150808252602083016020830185838301111561054f57600080fd5b61055a838284610730565b50505092915050565b60006020828403121561057557600080fd5b600082013567ffffffffffffffff81111561058f57600080fd5b61059b8482850161050f565b91505092915050565b6105ad81610724565b82525050565b60006105be82610708565b6105c88185610713565b93506105d881856020860161073f565b6105e181610772565b840191505092915050565b60006105f9602683610713565b91507f596f7520617265206e6f7420746865206f776e6572206f66207468697320636f60008301527f6e747261637400000000000000000000000000000000000000000000000000006020830152604082019050919050565b600060208201905061066760008301846105a4565b92915050565b6000602082019050818103600083015261068781846105b3565b905092915050565b600060208201905081810360008301526106a8816105ec565b9050919050565b6000604051905081810181811067ffffffffffffffff821117156106d257600080fd5b8060405250919050565b600067ffffffffffffffff8211156106f357600080fd5b601f19601f8301169050602081019050919050565b600081519050919050565b600082825260208201905092915050565b60008115159050919050565b82818337600083830152505050565b60005b8381101561075d578082015181840152602081019050610742565b8381111561076c576000848401525b50505050565b6000601f19601f830116905091905056fea365627a7a723158201686a1565e5f9b09408092e12518447c2fdf2658816818a73f97dec038ea67606c6578706572696d656e74616cf564736f6c63430005100040",
  "source": "pragma solidity ^0.5.16;\npragma experimental ABIEncoderV2;\n\ncontract DataAccess{\n    address private owner = msg.sender;\n    string private dataHash;\n    string private secretObjectHash;\n\n\n    // constructor(string memory _dataHash, string memory _secretObjectHash) public {\n    //     dataHash = _dataHash;\n    //     secretObjectHash = _secretObjectHash;\n    // }\n\n    function amIOwner() public view returns(bool) {\n        return msg.sender == owner;\n    }\n\n    function storeDataHash ( string memory a )  public isOwner(){\n        dataHash = a;\n    }\n\n    function storeSecretObjectHash ( string memory a )  public isOwner(){\n        secretObjectHash = a;\n    }\n\n    function getDataHash () public isOwner() view  returns(string memory) {\n        return dataHash;\n    }\n\n    function getSecretObjectHash () public view  returns(string memory) {\n        return secretObjectHash;\n    }\n\n    modifier isOwner() {\n        require(msg.sender == owner, 'You are not the owner of this contract');\n        _;\n    }\n\n    modifier reject() {\n        require(true == false, 'Not reasonable');\n        _;\n    }\n\n }",
  "sourcePath": "C:\\Users\\youss\\Documents\\Courses\\iot\\project\\software\\blockchain\\src\\contracts\\DataAccess.sol",
  "compiler": {
    "name": "solc",
    "version": "0.5.16+commit.9c3226ce.Emscripten.clang"
  },
  "schemaVersion": "3.0.23",
  "updatedAt": "2020-04-14T16:00:34.522Z",
  "networkType": "ethereum",
  "devdoc": {
    "methods": {}
  },
  "userdoc": {
    "methods": {}
  }
}