{
  "contractName": "DataAccess",
  "abi": [
    {
      "constant": true,
      "inputs": [
        {
          "internalType": "string",
          "name": "",
          "type": "string"
        }
      ],
      "name": "doesUserHaveAccess",
      "outputs": [
        {
          "internalType": "bool",
          "name": "",
          "type": "bool"
        }
      ],
      "payable": false,
      "stateMutability": "view",
      "type": "function"
    },
    {
      "constant": true,
      "inputs": [
        {
          "internalType": "string",
          "name": "",
          "type": "string"
        }
      ],
      "name": "encryptedSecretKey",
      "outputs": [
        {
          "internalType": "string",
          "name": "",
          "type": "string"
        }
      ],
      "payable": false,
      "stateMutability": "view",
      "type": "function"
    },
    {
      "constant": true,
      "inputs": [],
      "name": "returnUsersPubKeys",
      "outputs": [
        {
          "internalType": "string[]",
          "name": "",
          "type": "string[]"
        }
      ],
      "payable": false,
      "stateMutability": "view",
      "type": "function"
    },
    {
      "constant": false,
      "inputs": [
        {
          "internalType": "string",
          "name": "a",
          "type": "string"
        }
      ],
      "name": "grantAccessToUser",
      "outputs": [],
      "payable": false,
      "stateMutability": "nonpayable",
      "type": "function"
    },
    {
      "constant": true,
      "inputs": [],
      "name": "amIOwner",
      "outputs": [
        {
          "internalType": "bool",
          "name": "",
          "type": "bool"
        }
      ],
      "payable": false,
      "stateMutability": "view",
      "type": "function"
    },
    {
      "constant": false,
      "inputs": [
        {
          "internalType": "string",
          "name": "a",
          "type": "string"
        }
      ],
      "name": "revokeAccessFromUser",
      "outputs": [],
      "payable": false,
      "stateMutability": "nonpayable",
      "type": "function"
    },
    {
      "constant": false,
      "inputs": [
        {
          "internalType": "string",
          "name": "a",
          "type": "string"
        }
      ],
      "name": "storeFileHash",
      "outputs": [],
      "payable": false,
      "stateMutability": "nonpayable",
      "type": "function"
    },
    {
      "constant": false,
      "inputs": [
        {
          "internalType": "string",
          "name": "a",
          "type": "string"
        }
      ],
      "name": "storeSecretObjectHash",
      "outputs": [],
      "payable": false,
      "stateMutability": "nonpayable",
      "type": "function"
    },
    {
      "constant": true,
      "inputs": [],
      "name": "getDataHash",
      "outputs": [
        {
          "internalType": "string",
          "name": "",
          "type": "string"
        }
      ],
      "payable": false,
      "stateMutability": "view",
      "type": "function"
    },
    {
      "constant": true,
      "inputs": [],
      "name": "getSecretObjectHash",
      "outputs": [
        {
          "internalType": "string",
          "name": "",
          "type": "string"
        }
      ],
      "payable": false,
      "stateMutability": "view",
      "type": "function"
    },
    {
      "constant": false,
      "inputs": [
        {
          "internalType": "string",
          "name": "a",
          "type": "string"
        }
      ],
      "name": "registerUser",
      "outputs": [],
      "payable": false,
      "stateMutability": "nonpayable",
      "type": "function"
    }
  ],
  "bytecode": "0x6080604052336000806101000a81548173ffffffffffffffffffffffffffffffffffffffff021916908373ffffffffffffffffffffffffffffffffffffffff16021790555034801561005057600080fd5b5061109f806100606000396000f3fe608060405234801561001057600080fd5b50600436106100a95760003560e01c80639ba8b811116100715780639ba8b8111461013e578063a3e4edcd1461016e578063af0a430b1461018c578063c3cffbdb146101bc578063d5cb12b7146101da578063fb6cbd06146101f6576100a9565b80631f690db5146100ae5780634e4ab830146100ca578063704f1b94146100e85780638493f71f1461010457806396a7159614610122575b600080fd5b6100c860048036036100c39190810190610c29565b610212565b005b6100d26102da565b6040516100df9190610e7d565b60405180910390f35b61010260048036036100fd9190810190610c29565b610331565b005b61010c610439565b6040516101199190610eba565b60405180910390f35b61013c60048036036101379190810190610c29565b61056a565b005b61015860048036036101539190810190610be8565b610633565b6040516101659190610e98565b60405180910390f35b6101766106f9565b6040516101839190610eba565b60405180910390f35b6101a660048036036101a19190810190610be8565b61082a565b6040516101b39190610e7d565b60405180910390f35b6101c4610860565b6040516101d19190610e5b565b60405180910390f35b6101f460048036036101ef9190810190610c29565b610949565b005b610210600480360361020b9190810190610c29565b6109f2565b005b6000809054906101000a900473ffffffffffffffffffffffffffffffffffffffff1673ffffffffffffffffffffffffffffffffffffffff163373ffffffffffffffffffffffffffffffffffffffff16146102a1576040517f08c379a000000000000000000000000000000000000000000000000000000000815260040161029890610edc565b60405180910390fd5b600180826040516102b29190610e44565b908152602001604051809103902060006101000a81548160ff02191690831515021790555050565b60008060009054906101000a900473ffffffffffffffffffffffffffffffffffffffff1673ffffffffffffffffffffffffffffffffffffffff163373ffffffffffffffffffffffffffffffffffffffff1614905090565b6000809054906101000a900473ffffffffffffffffffffffffffffffffffffffff1673ffffffffffffffffffffffffffffffffffffffff163373ffffffffffffffffffffffffffffffffffffffff16146103c0576040517f08c379a00000000000000000000000000000000000000000000000000000000081526004016103b790610edc565b60405180910390fd5b60038190806001815401808255809150509060018203906000526020600020016000909192909190915090805190602001906103fd929190610a9b565b505060006001826040516104119190610e44565b908152602001604051809103902060006101000a81548160ff02191690831515021790555050565b60606000809054906101000a900473ffffffffffffffffffffffffffffffffffffffff1673ffffffffffffffffffffffffffffffffffffffff163373ffffffffffffffffffffffffffffffffffffffff16146104ca576040517f08c379a00000000000000000000000000000000000000000000000000000000081526004016104c190610edc565b60405180910390fd5b60048054600181600116156101000203166002900480601f0160208091040260200160405190810160405280929190818152602001828054600181600116156101000203166002900480156105605780601f1061053557610100808354040283529160200191610560565b820191906000526020600020905b81548152906001019060200180831161054357829003601f168201915b5050505050905090565b6000809054906101000a900473ffffffffffffffffffffffffffffffffffffffff1673ffffffffffffffffffffffffffffffffffffffff163373ffffffffffffffffffffffffffffffffffffffff16146105f9576040517f08c379a00000000000000000000000000000000000000000000000000000000081526004016105f090610edc565b60405180910390fd5b600060018260405161060b9190610e44565b908152602001604051809103902060006101000a81548160ff02191690831515021790555050565b6002818051602081018201805184825260208301602085012081835280955050505050506000915090508054600181600116156101000203166002900480601f0160208091040260200160405190810160405280929190818152602001828054600181600116156101000203166002900480156106f15780601f106106c6576101008083540402835291602001916106f1565b820191906000526020600020905b8154815290600101906020018083116106d457829003601f168201915b505050505081565b60606000809054906101000a900473ffffffffffffffffffffffffffffffffffffffff1673ffffffffffffffffffffffffffffffffffffffff163373ffffffffffffffffffffffffffffffffffffffff161461078a576040517f08c379a000000000000000000000000000000000000000000000000000000000815260040161078190610edc565b60405180910390fd5b60058054600181600116156101000203166002900480601f0160208091040260200160405190810160405280929190818152602001828054600181600116156101000203166002900480156108205780601f106107f557610100808354040283529160200191610820565b820191906000526020600020905b81548152906001019060200180831161080357829003601f168201915b5050505050905090565b6001818051602081018201805184825260208301602085012081835280955050505050506000915054906101000a900460ff1681565b60606003805480602002602001604051908101604052809291908181526020016000905b82821015610940578382906000526020600020018054600181600116156101000203166002900480601f01602080910402602001604051908101604052809291908181526020018280546001816001161561010002031660029004801561092c5780601f106109015761010080835404028352916020019161092c565b820191906000526020600020905b81548152906001019060200180831161090f57829003601f168201915b505050505081526020019060010190610884565b50505050905090565b6000809054906101000a900473ffffffffffffffffffffffffffffffffffffffff1673ffffffffffffffffffffffffffffffffffffffff163373ffffffffffffffffffffffffffffffffffffffff16146109d8576040517f08c379a00000000000000000000000000000000000000000000000000000000081526004016109cf90610edc565b60405180910390fd5b80600590805190602001906109ee929190610a9b565b5050565b6000809054906101000a900473ffffffffffffffffffffffffffffffffffffffff1673ffffffffffffffffffffffffffffffffffffffff163373ffffffffffffffffffffffffffffffffffffffff1614610a81576040517f08c379a0000000000000000000000000000000000000000000000000000000008152600401610a7890610edc565b60405180910390fd5b8060049080519060200190610a97929190610a9b565b5050565b828054600181600116156101000203166002900490600052602060002090601f016020900481019282601f10610adc57805160ff1916838001178555610b0a565b82800160010185558215610b0a579182015b82811115610b09578251825591602001919060010190610aee565b5b509050610b179190610b1b565b5090565b610b3d91905b80821115610b39576000816000905550600101610b21565b5090565b90565b600082601f830112610b5157600080fd5b8135610b64610b5f82610f29565b610efc565b91508082526020830160208301858383011115610b8057600080fd5b610b8b838284611009565b50505092915050565b600082601f830112610ba557600080fd5b8135610bb8610bb382610f55565b610efc565b91508082526020830160208301858383011115610bd457600080fd5b610bdf838284611009565b50505092915050565b600060208284031215610bfa57600080fd5b600082013567ffffffffffffffff811115610c1457600080fd5b610c2084828501610b40565b91505092915050565b600060208284031215610c3b57600080fd5b600082013567ffffffffffffffff811115610c5557600080fd5b610c6184828501610b94565b91505092915050565b6000610c768383610d6c565b905092915050565b6000610c8982610f91565b610c938185610fbf565b935083602082028501610ca585610f81565b8060005b85811015610ce15784840389528151610cc28582610c6a565b9450610ccd83610fb2565b925060208a01995050600181019050610ca9565b50829750879550505050505092915050565b610cfc81610ffd565b82525050565b6000610d0d82610fa7565b610d178185610fe1565b9350610d27818560208601611018565b610d308161104b565b840191505092915050565b6000610d4682610fa7565b610d508185610ff2565b9350610d60818560208601611018565b80840191505092915050565b6000610d7782610f9c565b610d818185610fd0565b9350610d91818560208601611018565b610d9a8161104b565b840191505092915050565b6000610db082610f9c565b610dba8185610fe1565b9350610dca818560208601611018565b610dd38161104b565b840191505092915050565b6000610deb602683610fe1565b91507f596f7520617265206e6f7420746865206f776e6572206f66207468697320636f60008301527f6e747261637400000000000000000000000000000000000000000000000000006020830152604082019050919050565b6000610e508284610d3b565b915081905092915050565b60006020820190508181036000830152610e758184610c7e565b905092915050565b6000602082019050610e926000830184610cf3565b92915050565b60006020820190508181036000830152610eb28184610da5565b905092915050565b60006020820190508181036000830152610ed48184610d02565b905092915050565b60006020820190508181036000830152610ef581610dde565b9050919050565b6000604051905081810181811067ffffffffffffffff82111715610f1f57600080fd5b8060405250919050565b600067ffffffffffffffff821115610f4057600080fd5b601f19601f8301169050602081019050919050565b600067ffffffffffffffff821115610f6c57600080fd5b601f19601f8301169050602081019050919050565b6000819050602082019050919050565b600081519050919050565b600081519050919050565b600081519050919050565b6000602082019050919050565b600082825260208201905092915050565b600082825260208201905092915050565b600082825260208201905092915050565b600081905092915050565b60008115159050919050565b82818337600083830152505050565b60005b8381101561103657808201518184015260208101905061101b565b83811115611045576000848401525b50505050565b6000601f19601f830116905091905056fea365627a7a7231582092434a5aa6c71710ce4591483ddfedd8313ccc6ba90ac9b9a514d64325f1f2416c6578706572696d656e74616cf564736f6c63430005100040",
  "source": "pragma solidity ^0.5.16;\npragma experimental ABIEncoderV2;\n\ncontract DataAccess{\n    address private owner = msg.sender;\n    mapping(string => bool) public doesUserHaveAccess;\n    mapping(string => string) public encryptedSecretKey;\n    string[] private usersPubKeys;\n    string private fileHash;\n    string private secretObjectHash;\n\n    function returnUsersPubKeys() public view returns(string[] memory)  {\n        return usersPubKeys;\n    }\n\n    function grantAccessToUser ( string memory a ) public isOwner() {\n        doesUserHaveAccess[a] = true;\n    }\n\n    function amIOwner() public view returns(bool) {\n        return msg.sender == owner;\n    }\n\n    function revokeAccessFromUser ( string memory a )  public isOwner() {\n        doesUserHaveAccess[a] = false;\n    }\n\n    function storeFileHash ( string memory a )  public isOwner(){\n        fileHash = a;\n    }\n\n    function storeSecretObjectHash ( string memory a )  public isOwner(){\n        secretObjectHash = a;\n    }\n\n    function getDataHash () public isOwner() view  returns(string memory) {\n        return fileHash;\n    }\n\n    function getSecretObjectHash () public isOwner() view  returns(string memory) {\n        return secretObjectHash;\n    }\n\n    function registerUser ( string memory a   )  public isOwner(){\n        usersPubKeys.push(a);\n        doesUserHaveAccess[a] = false;\n    }\n\n    modifier userExists(address _userId) {\n        require (_userId != address(0x0), 'The user should exist');\n        _;\n    }\n\n    modifier isOwner() {\n        require(msg.sender == owner, 'You are not the owner of this contract');\n        _;\n    }\n\n    modifier reject() {\n        require(true == false, 'Not reasonable');\n        _;\n    }\n\n }",
  "sourcePath": "C:\\Users\\youss\\Documents\\Courses\\iot\\project\\new_folder\\blockchain\\src\\contracts\\DataAccess.sol",
  "compiler": {
    "name": "solc",
    "version": "0.5.16+commit.9c3226ce.Emscripten.clang"
  },
  "schemaVersion": "3.0.23",
  "updatedAt": "2020-03-29T03:36:20.387Z",
  "devdoc": {
    "methods": {}
  },
  "userdoc": {
    "methods": {}
  }
}