{
  "contractName": "DataAccess",
  "abi": [
    {
      "constant": true,
      "inputs": [],
      "name": "amIOwner",
      "outputs": [
        {
          "internalType": "bool",
          "name": "",
          "type": "bool"
        }
      ],
      "payable": false,
      "stateMutability": "view",
      "type": "function"
    },
    {
      "constant": false,
      "inputs": [
        {
          "internalType": "string",
          "name": "a",
          "type": "string"
        }
      ],
      "name": "storeDataHash",
      "outputs": [],
      "payable": false,
      "stateMutability": "nonpayable",
      "type": "function"
    },
    {
      "constant": false,
      "inputs": [
        {
          "internalType": "string",
          "name": "a",
          "type": "string"
        }
      ],
      "name": "storeUsersHash",
      "outputs": [],
      "payable": false,
      "stateMutability": "nonpayable",
      "type": "function"
    },
    {
      "constant": true,
      "inputs": [],
      "name": "getDataHash",
      "outputs": [
        {
          "internalType": "string",
          "name": "",
          "type": "string"
        }
      ],
      "payable": false,
      "stateMutability": "view",
      "type": "function"
    },
    {
      "constant": true,
      "inputs": [],
      "name": "getUsersHash",
      "outputs": [
        {
          "internalType": "string",
          "name": "",
          "type": "string"
        }
      ],
      "payable": false,
      "stateMutability": "view",
      "type": "function"
    }
  ],
  "bytecode": "0x6080604052336000806101000a81548173ffffffffffffffffffffffffffffffffffffffff021916908373ffffffffffffffffffffffffffffffffffffffff16021790555034801561005057600080fd5b50610737806100606000396000f3fe608060405234801561001057600080fd5b50600436106100575760003560e01c80630d54beda1461005c5780634e4ab8301461007a578063a4da229014610098578063cb43bd4f146100b6578063d10d0d02146100d2575b600080fd5b6100646100ee565b60405161007191906105de565b60405180910390f35b610082610190565b60405161008f91906105c3565b60405180910390f35b6100a06101e7565b6040516100ad91906105de565b60405180910390f35b6100d060048036036100cb91908101906104d4565b610289565b005b6100ec60048036036100e791908101906104d4565b610332565b005b606060028054600181600116156101000203166002900480601f0160208091040260200160405190810160405280929190818152602001828054600181600116156101000203166002900480156101865780601f1061015b57610100808354040283529160200191610186565b820191906000526020600020905b81548152906001019060200180831161016957829003601f168201915b5050505050905090565b60008060009054906101000a900473ffffffffffffffffffffffffffffffffffffffff1673ffffffffffffffffffffffffffffffffffffffff163373ffffffffffffffffffffffffffffffffffffffff1614905090565b606060018054600181600116156101000203166002900480601f01602080910402602001604051908101604052809291908181526020018280546001816001161561010002031660029004801561027f5780601f106102545761010080835404028352916020019161027f565b820191906000526020600020905b81548152906001019060200180831161026257829003601f168201915b5050505050905090565b6000809054906101000a900473ffffffffffffffffffffffffffffffffffffffff1673ffffffffffffffffffffffffffffffffffffffff163373ffffffffffffffffffffffffffffffffffffffff1614610318576040517f08c379a000000000000000000000000000000000000000000000000000000000815260040161030f90610600565b60405180910390fd5b806002908051906020019061032e9291906103db565b5050565b6000809054906101000a900473ffffffffffffffffffffffffffffffffffffffff1673ffffffffffffffffffffffffffffffffffffffff163373ffffffffffffffffffffffffffffffffffffffff16146103c1576040517f08c379a00000000000000000000000000000000000000000000000000000000081526004016103b890610600565b60405180910390fd5b80600190805190602001906103d79291906103db565b5050565b828054600181600116156101000203166002900490600052602060002090601f016020900481019282601f1061041c57805160ff191683800117855561044a565b8280016001018555821561044a579182015b8281111561044957825182559160200191906001019061042e565b5b509050610457919061045b565b5090565b61047d91905b80821115610479576000816000905550600101610461565b5090565b90565b600082601f83011261049157600080fd5b81356104a461049f8261064d565b610620565b915080825260208301602083018583830111156104c057600080fd5b6104cb8382846106a1565b50505092915050565b6000602082840312156104e657600080fd5b600082013567ffffffffffffffff81111561050057600080fd5b61050c84828501610480565b91505092915050565b61051e81610695565b82525050565b600061052f82610679565b6105398185610684565b93506105498185602086016106b0565b610552816106e3565b840191505092915050565b600061056a602683610684565b91507f596f7520617265206e6f7420746865206f776e6572206f66207468697320636f60008301527f6e747261637400000000000000000000000000000000000000000000000000006020830152604082019050919050565b60006020820190506105d86000830184610515565b92915050565b600060208201905081810360008301526105f88184610524565b905092915050565b600060208201905081810360008301526106198161055d565b9050919050565b6000604051905081810181811067ffffffffffffffff8211171561064357600080fd5b8060405250919050565b600067ffffffffffffffff82111561066457600080fd5b601f19601f8301169050602081019050919050565b600081519050919050565b600082825260208201905092915050565b60008115159050919050565b82818337600083830152505050565b60005b838110156106ce5780820151818401526020810190506106b3565b838111156106dd576000848401525b50505050565b6000601f19601f830116905091905056fea365627a7a7231582012a7b694e7fe74a4bf3157c4d2c1b6f2f0dae0a289d7b8f2a0faa1f83e9aa3186c6578706572696d656e74616cf564736f6c63430005100040",
  "source": "pragma solidity ^0.5.16;\npragma experimental ABIEncoderV2;\n\ncontract DataAccess{\n    address private owner = msg.sender;\n    string private dataHash;\n    string private usersHash;\n\n    function amIOwner() public view returns(bool) {\n        return msg.sender == owner;\n    }\n\n    function storeDataHash ( string memory a )  public isOwner(){\n        dataHash = a;\n    }\n\n    function storeUsersHash ( string memory a )  public isOwner(){\n        usersHash = a;\n    }\n\n    function getDataHash () public view  returns(string memory) {\n        return dataHash;\n    }\n\n    function getUsersHash () public view  returns(string memory) {\n        return usersHash;\n    }\n\n    modifier isOwner() {\n        require(msg.sender == owner, 'You are not the owner of this contract');\n        _;\n    }\n }",
  "sourcePath": "C:\\Users\\youss\\Documents\\Courses\\iot\\project\\software\\blockchain\\src\\contracts\\DataAccess.sol",
  "compiler": {
    "name": "solc",
    "version": "0.5.16+commit.9c3226ce.Emscripten.clang"
  },
  "schemaVersion": "3.0.23",
  "updatedAt": "2020-04-23T13:07:12.483Z",
  "networkType": "ethereum",
  "devdoc": {
    "methods": {}
  },
  "userdoc": {
    "methods": {}
  }
}